:020000040000FA
:10000000980E0020F500000015010000D900000046
:1000100000000000000000000000000000000000E0
:1000200000000000000000000000000019010000B6
:1000300000000000000000001B0100001D01000086
:100040001F0100001F0100001D0D00001F01000026
:100050005D0F0000B11300001F0100001F01000030
:10006000A9260000B92A00001F0100001F0100009E
:100070001F0100001F0100001F0100001F01000000
:100080001F0100001F0100001F0100001F010000F0
:100090001F0100001F0100001F0100001F010000E0
:1000A0001F0100001F0100001F0100001F010000D0
:1000B0001F0100001F0100001F0100001F010000C0
:1000C0000448854600F0F4F900480047113F00005D
:1000D000C046C046980E002004207146084202D057
:1000E000EFF3098001E0EFF308807146004A104702
:1000F0005D1800000A480B4901600B4901600B497B
:1001000001600B4A0B491160002101600A488047D9
:100110000A480047FEE7FEE7FEE7FEE7FEE7FEE7E8
:100120000001005059000000160000008800000087
:1001300024000050A55A000025260000C100000040
:1001400030B50B46014600202022012409E00D466F
:10015000D5409D4205D31D469540491B25469540F7
:1001600040191546521E002DF1DC30BD03460B43ED
:100170009B0703D009E008C9121F08C0042AFAD25D
:1001800003E00B780370401C491C521EF9D27047E3
:10019000F8B502464A40D40F42004B0052085B08B3
:1001A0009A4202D20246084611464A0023D0C30DA5
:1001B0004A00DDB2120EAD1A202D35DA49020126B1
:1001C000490AF6058A19002C00D0524220214F1B03
:1001D0001146B9402A411018C20D9A4221D0002C74
:1001E00017D0012D08DCDA05801AD20F8019D2074A
:1001F000DBB200F023F9F8BDDA05801A01234000D4
:100200001B06C01880185A428018CA0F10434900B4
:1002100007E04908C2071143DA05801A801940082F
:10022000801800F003F9F8BD61000122511A001B8B
:10023000F7E70122D2075140AAE70122D207504036
:10024000A6E7024670B54A40D30FDB0740002DD029
:100250004A002AD0010E140E000212020919400AA7
:10026000520A8418E50104465443000A120A2E0477
:100270005043A4194219200CC543AA18120C012599
:10028000AD03521C521912047F39240400D0521CB1
:10029000104301D44000491EC2B20C06C009201808
:1002A000401C4008802A02D003E0002070BD4008B6
:1002B0004000002900DA0020184370BD70B50246E6
:1002C0004A40D50F40004A00ED0740085208002878
:1002D00014D0002A12D0C40DD30D41020120C00554
:1002E0005202490A520AE41A091812187D3491423E
:1002F00001D3641C00E04900002C01DA002070BD2D
:100300000023914201D3891A034340084900002881
:10031000F7D100290AD0914202D10121C90705E095
:10032000914201D2012101E00121C943E005C01839
:10033000401900F07BF870BDC217C10F504010B5D6
:100340004018CA079623002100F078F810BD10B5B8
:1003500000229623114600F071F810BDC20F410033
:1003600040020123400ADB05D207090EC0187F298D
:1003700001DA00207047962903DC9623591AC840F9
:1003800001E096398840002AF4D04042704741008D
:1003900040020122400AD205090E80187F2901DAA5
:1003A00000207047962903DC9622511AC8407047F6
:1003B00096398840704700000122D207002800DBF0
:1003C000101A002900DB511A88427047F0B51FB49B
:1003D0000646002082B005464024019100901BE0B3
:1003E000019922460F46304600F084F8049A059B96
:1003F000801A994110D310461946224600F06AF837
:10040000361A8F410197224601200021009F00F0FB
:1004100061F838184D4100902046641E0028DFDC4A
:10042000019B00982946324607B0F0BD002904DA46
:10043000401C490001D140084000704770B40024BE
:10044000050C05D11024000402D1002921D011246B
:10045000050E01D100020834050F01D10001241D51
:10046000850F01D18000A41C002801DB4000641C22
:10047000002908D020252E1B0D46F540A14000D0B4
:1004800001212943084301061B1B000ADB1D02D57D
:10049000002070BC7047DB05181880180029F8DAB6
:1004A000401C4900F5D170BC400840007047000076
:1004B000064C0125064E05E0E36807CC2B430C3CB7
:1004C00098471034B442F7D3FFF7FEFD68450000AB
:1004D0008845000010B5202A04DB0146203A9140EF
:1004E000002010BD914020239C1A0346E34019438D
:1004F000904010BD10B5202A04DB0846203AD040B9
:10050000002110BD0B46D340D0402024A21A9140B8
:100510000843194610BD0000FF21F53110B54843CE
:100520000149FFF70DFE10BDFF0F000010B50B4C89
:10053000204600F07DF9032252040C21204600F0F1
:10054000E7FA074C7F230C220021204600F00AF82E
:10055000216A01221143216210BD00001CFE2356B6
:1005600000000E4030B50648046A064D2C400C438E
:1005700014430462416A090A09021943416230BD09
:1005800000000E40F3FBFFFFF8B58B4E8B4932782D
:10059000097800258A4200D075600278884F0121D1
:1005A000884C130003F076F90FEFCDDAAEEF8F8FA2
:1005B00074AE744310093C2DEF007268521C7260D7
:1005C000642A19D3756016E07268521C726061610A
:1005D000A161C82A10D97C4AE12311717B4A397183
:1005E0001268DB009A4202D9A5610D2107E0784B21
:1005F000D218462A01D20170D2E0A5610E21017005
:10060000CDE07068401C70602828F5D30246283A77
:10061000282A01D8A161C3E05028EDD9656176E0B0
:100620007268521C7260282AE6D9A16149E070689C
:10063000401C7060342803D221616561A5610DE022
:100640000246343A482A02D22561616105E0024639
:100650007C3A342A06D221616561A161F62806D36D
:1006600071609DE00246B03A462AEDD3F6E7C8280D
:100670000DD1B078401CC1B2B17056A003F0FAF8A9
:10068000B0783C2803D358A003F0F4F8E56187E084
:100690007268521C7260102A39D31346103B102B1B
:1006A00005D3103B102B09D3103B102B02D26161F4
:1006B000A16104E011464039102900D2A561502AF9
:1006C0006ED305706CE07068401C7060642810D2B6
:1006D00055480068012802D07078012860D17170F7
:1006E0003868142148435149884259D265612561CF
:1006F00056E00246643A642A01D261612161C82849
:100700004DD84DE07068401C70600A2801D2A56188
:1007100046E002460A3A0A2A0ED30A3A0A2A05D3C2
:100720000A3A0A2A08D30A3A0A2A01D2A56105E040
:100730000246323A1E2A01D26161A16150282ED2AE
:100740002EE07068401C7060362802D26561A56199
:1007500001E06161A161672821D821E07068401C37
:10076000706014280CD30246153A512A11D3523A1C
:10077000132A05D3143A512A0BD3523A7B2A03D2B7
:100780006561A56107E00FE00246FF3A4A3A512A47
:1007900001D26561A161FF219B31884200D975605A
:1007A000064800783070F8BD6161E1602161A161A7
:1007B000A1616161F3E70000140000200001002046
:1007C000AC00002000420050A4000020880000205F
:1007D0003EF9FFFF09096D753842757A4379636CFC
:1007E00065203D2025640A00202020202020202094
:1007F00020202020202020202020202020202020F9
:1008000020202020202020202A2A2036307320205B
:100810004944204572726F7220506F776572206F65
:100820006666202A2A0A00007C000020404B4C000B
:10083000810F8A00044951184A68C306DB0E012063
:10084000984002434A60704700020050F0B507002C
:100850000C46564885B054490162554E016813D084
:10086000042211430160102000F0BAF90120C004F5
:1008700002905048042503904F4850492018884260
:100880000DD8002004901CE00122114301601046A5
:1008900000F0A6F90020022503960290ECE74848F4
:1008A00048492018884203D801206400049008E0D9
:1008B0004548454920184942884249D80320A400A8
:1008C00004900026F64300200090019021E0294684
:1008D0000398FFF735FC3D493D4A4118914217D234
:1008E0000222354B014651435B1CCF185B429F42AD
:1008F0000AD8A14201D90B1B00E0631AB34203D20C
:100900001E000095019203D03249521C8A42E8D958
:100910006D1C212DDBD904980299800308430099AE
:10092000012249029202891A08430199891E08434B
:100930001E490862042000F053F904990098491CEC
:1009400041430398FFF7FCFB0199484305B0F0BD14
:10095000002F0FD0204915480162042000F040F913
:100960001EA0006800901148016A0013014203D0E4
:100970000020EBE71A49EEE7080300D50D4E880387
:1009800001D53046E2E70804800F6A46105CCA05CC
:100990008904C90E891CD20D4143B008921C5043F2
:1009A000FFF7CEFB8000D1E70000010000020050FD
:1009B000001BB70000805101FF1E0AFAFFE0F50599
:1009C0007F0F05FD7FF0FA02C08782FEFF95E7FFEB
:1009D000BF77CC00010200006FD6000001020204C4
:1009E0002EC2000002490A6802430A6070470000F4
:1009F0000002005008B511A0006800901048016A7C
:100A00000013014201D0002008BD080301D50D48A4
:100A100000E00D488A03F7D40A04920F6B469B5CF2
:100A2000CA058904D20DC90E891C8008921C59433D
:100A30005043FFF785FB800008BD0000010202045F
:100A40000002005000805101001BB700F8B51B4C9C
:100A50000546E668102006401948854202D8401035
:100A6000854200D2054620680427384320601020C4
:100A700000F0B6F82069072108432061A069000949
:100A80000001A06120682946C00704D00020FFF7BC
:100A9000DDFE054607E00120C004FFF7D7FEE6684B
:100AA0000546102006400021022000F00BF8002E21
:100AB00002D12068B84320602846F8BD00020050EB
:100AC00080F0FA02F3B5114C81B0E5680F461026AC
:100AD0002068354030432060304600F081F82069BE
:100AE000072108432061A069000900013843A06183
:100AF0002069C1080198C9000143216101F04AFD44
:100B0000002D02D12068B0432060FEBD00020050DD
:100B100070B5430E5B070DD083009B0F0F4C9B00FD
:100B20001B191C6805016D0FC601F60EB540AC43DC
:100B30000C431C60830A1906090E0ED00103074CF2
:100B4000890F8900083409190C68DBB28005DB4382
:100B5000C00E8340234013430B6070BD1002005051
:100B600070B50D4A0B4905260C4B156800248842C8
:100B700001D9401A01E0014600200A466A435A6141
:100B80009C611E611A69D203FCD51C610028EED15C
:100B900070BD0000B81E05000400002000E000E069
:100BA00070B50D4A0B4905260C4B15680024884288
:100BB00001D9401A01E0014600200A466A435A6101
:100BC0009C611E611A69D203FCD51C610028EED11C
:100BD00070BD0000B81E05000400002000E000E029
:100BE00010B504460749084B05E00A46491E002A8D
:100BF00001DC002010BDDA6820469043F5D10120C9
:100C000010BD0000804F120000020050F8B53648B9
:100C1000012501680024354E354800290BD0317874
:100C2000344A354F354E002928D0022925D1836B0F
:100C3000002B29D153E0816B314F002906D1C16BC4
:100C4000002903D0347011E0C46212E0816B0029E6
:100C500004D0C16B002901D035700AE0816B0029F6
:100C600009D1C16B002906D102213170F97801291F
:100C7000EAD002F095FF3078F870F8BD836B002B56
:100C800002D1C06B0028F8D11570002000F098FE4A
:100C90003C6031680120800781433160144F403F40
:100CA000BC611848FFF75CFFFC601748FFF758FF6E
:100CB0001648FFF755FFBD611548FFF751FFBC61AE
:100CC0001448FFF74DFFFD601348FFF749FFBD6172
:100CD000306879050843306002F094FDF8BDC06BC0
:100CE0000028D1D1F8BD0000F4000020ED00002064
:100CF000404200501C010020004000402000014004
:100D00001400002008CF0000400D030088FB030002
:100D1000C8A9010050C30000289A0100F8B53F4956
:100D2000086A400779D53E480068012875D1012539
:100D300002023C48026052000260042008623A4C01
:100D4000A06A3A4F3A4E01280CD13078002809D1D8
:100D500038A002F08FFD38480078B8733748007823
:100D6000F8733570A06A002857D13078012854D123
:100D70000220307032A002F07DFD3348017800205F
:100D800000F01EFE314800240571314832490470DC
:100D900030480068086031480168491C01603048EB
:100DA0000178012900D00470032030701E484030C3
:100DB00045601D484038C56004618461294D29683B
:100DC0004005814329602848FFF7EAFE2868690644
:100DD0000843286025480078012808D124487D214F
:100DE0000068C900884202D90F4840304460214859
:100DF00004710460204804602048046003203070BF
:100E00000D48B97B01700D48F97B0170FF21054841
:100E100001318038016049000160F8BDC0400050D8
:100E20007C00002080E100E04042005024000020CF
:100E300034010020480A000038010020370100205A
:100E400020204C0A00000000ED000020DC00002003
:100E50003601002010010020300100208C0000200D
:100E60000001002020000140B01E0400FF0000200F
:100E700088000020D4000020F4000020F8000020AA
:100E800010B5044601F0F6F90C4908680122104338
:100E900008602220C8604C600A61BFF36F8F086948
:100EA0000028FCD10868400603D50868402210439A
:100EB000086003490020086010BD000000C0005019
:100EC00000010050F8B51D4E30682C2188430125E3
:100ED000284330601A481B4CAF220168D20000271B
:100EE000A07891420AD9401CC0B2A07014280FD338
:100EF000002001F0FDF9E576A77009E0C82907D2C6
:100F0000002804D0401E0006000EA07000D1E77635
:100F10000D480078012805D00C48E063E07E0028E9
:100F200002D004E00A48F8E70B490A480860306834
:100F30002C21884328433060F8BD00000040004069
:100F400010010020600100207A000020CDCCCC3DB3
:100F500000002041A2080000F0000020F8B5F94888
:100F6000016AC90701D0012108E0016A890701D59A
:100F7000022103E0016A490701D504210162F34916
:100F8000F1480978F44B8C46F14940790D78F149E4
:100F9000142209681B684A43F04C03280AD002282F
:100FA0001FD0062834D0042849D005285ED0012857
:100FB00074D08FE0A668002E05D000266768002F49
:100FC00003D0002702E00126F8E70227F719266878
:100FD000002E01D0002600E00426BE19012E74D098
:100FE0009AE0A668002E05D000266768002F03D07F
:100FF000002702E00126F8E70227F7192668002EED
:1010000001D0002600E00426BE19032E5DD09AE030
:10101000A668002E05D000266768002F03D00027A1
:1010200002E00126F8E70227F7192668002E01D012
:10103000002600E00426BE19022E46D09AE0A668DB
:10104000002E05D000266768002F03D0002702E09D
:101050000126F8E70227F7192668002E01D000269E
:1010600000E00426BE19062E2FD09AE0A668002EB6
:1010700005D000266768002F03D0002702E0012674
:10108000F8E70227F7192668002E01D0002600E0B5
:101090000426BE19042E18D09CE0FFE7A668002E97
:1010A00005D000266768002F03D0002702E0012644
:1010B000F8E70227F7192668002E02D0002601E083
:1010C00003E00426BE19052E0FD16646022E71D00C
:1010D00001280AD003281FD0022834D0062849D07E
:1010E00004285ED0052875D08EE0A068002805D0C1
:1010F00000206668002E03D0002602E00120F8E7F9
:10110000022680192668002E01D0002600E0042661
:101110008019032875D077E0A068002805D000204A
:101120006668002E03D0002602E00120F8E70226C0
:1011300080192668002E01D0002600E004268019C0
:1011400002285ED060E0A068002805D00020666814
:10115000002E03D0002602E00120F8E702268019C5
:101160002668002E01D0002600E0042680190628FB
:1011700047D049E0A068002805D000206668002E0E
:1011800003D0002602E00120F8E702268019266835
:10119000002E01D0002600E004268019042830D05B
:1011A00032E0A068002806D000206668002E04D037
:1011B000002603E02BE00120F7E7022680192668CD
:1011C000002E02D0002601E004E004268019052844
:1011D00017D019E0A068002805D000206668002E0E
:1011E00003D0002602E00120F8E7022680192668D5
:1011F000002E02D0002601E003E004268019012819
:1012000002D16046002802D0002D15D020E0002D2C
:101210001ED153484C4E0571056035796D1C3571F2
:101220000125504E012B35713ED1642A3CD94E4ADE
:10123000914239D2057137E0012B09D14A488142E8
:1012400006D24A48824203D93F48C16B491CC16358
:101250003D48C06B192827D93D4E002D24D1012BC4
:1012600022D143487D21C900824211D91046FEF7A0
:1012700067FF01463FA002F0FDFA052030703348B9
:101280000178002000F09CFB3D49072008700BE02E
:1012900003203070324B012018711046FEF750FFCA
:1012A000014638A002F0E6FA274D384E2879052885
:1012B00023D92C480168142041433548FEF740FFEC
:1012C000344A254910600968334F002903D0327829
:1012D000012A04D00BE000203860106007E00129EB
:1012E00005D12E4948432E49FEF72AFF38600020D9
:1012F0001C49012208600A7128712A4800780028D8
:1013000001D001280BD112480078002807D130788D
:10131000012804D10D480178012000F0D7FBA06816
:10132000002805D000206168002903D0002102E0D8
:101330000120F8E7022141182068002834D000205D
:1013400033E000000040005024000020ED000020A9
:10135000FC000020BC0000207C0000200042005067
:10136000D4000020CC000020D8C22D00B80B000013
:1013700070110100466F726365207825640A0000D1
:10138000000100207825640A0000000036010020DA
:1013900000879303F8000020F4000020C70200003B
:1013A0001027000034010020042008186871F8BDDF
:1013B00010B50B48016A090703D50821016209A08D
:1013C0000AE0074940390A6A0A62016A0162044870
:1013D0004030016A016208A002F04CFA10BD000022
:1013E000C040005050332E3320494E54206F636369
:1013F00075727265642E0A00556E2D65787065638E
:1014000074656420696E74657272757074732E0AE7
:101410000000000010B58369140E8C4023438361E3
:10142000C3691202120A8A401343C36110BD00004F
:10143000F8B597484168FF22120411434160052422
:101440002407606B934908406063606B5F21084329
:101450006063E06B90490840E063E06B0221084361
:10146000E0638B480322803000F030F9E06BFF210D
:1014700002318843E063E06BE06385480122114656
:10148000803000F023F9854F01253D62A06B84492F
:101490000840A063A06BA0637D480022402140303B
:1014A00000F014F97A4800228021403000F00EF953
:1014B000E06B7C490840E063E06B032109030843CB
:1014C000E063734802221021803000F0FFF870487A
:1014D00002222021803000F0F9F8206B7249084088
:1014E0002063206B20636A4E0022403E012130467B
:1014F00000F0ECF86D4A00213046FFF78BFF002228
:101500000221304600F0E2F8684A01213046FFF738
:1015100081FF00220421304600F0D8F8634A0221FE
:101520003046FFF777FF5D492820C03908607069B1
:101530000221084370617069084370617069042179
:1015400008437061084600F0C1FBA06B5849084091
:10155000A063A06BA0634E4801220221403000F03E
:10156000B5F84B4801220821403000F0AFF8484858
:1015700001222021403000F0A9F800207860F860B6
:101580007861206B4B4908402063206B20634A48F8
:101590000168414A1140016001680160012208218F
:1015A000304600F093F83D48403845610122102153
:1015B000304600F08BF8394840380561012220217F
:1015C000304600F083F83548403845613048012204
:1015D0000221C03000F07AF8304840304560E06BBE
:1015E00036490840E063E06BE063294801220821A6
:1015F000803000F06BF80020F86202462448402159
:10160000803000F063F8224800228021803000F012
:101610005DF8E06B2A490840E063E06B0421084371
:10162000E0631B480022803000F050F818481F4A41
:1016300002218030FFF7EEFE022000F047FB174941
:101640002820C039086012488030406904210843CE
:101650000F4980314861206B1A4908402063206B94
:10166000206301224021304600F030F80B4840381A
:101670008561206B144908402063206B20630122A0
:101680008021304600F022F804484038C561F8BD9A
:1016900040400050A0A0FFFFFDFDFFFF4042005072
:1016A0003F3FFFFFCFCFFFFFF8F8FFFC0100010035
:1016B000D5D5FFFFC7C7FFFF400000503737FFFFFA
:1016C000FBFBFFFFBFBFFFFF7F7FFFFFF0B50023E6
:1016D00001273C469C400C4208D005685C0003266C
:1016E000A640B5431646A640354305605B1C082B53
:1016F000EFD3F0BDF8B500264D4801220263016A20
:10170000D30219430162016BC907FCD001210163B7
:1017100000244748A10008180068002C85B20AD0B0
:10172000012C17D0062C54D0032C24D0052C24D007
:10173000022C25D04DE03F487D2105603E48C90080
:101740006843FEF7FDFC3D4908603D480168A94239
:1017500014D33EE02846FEF7DFFE3A4A116888427D
:1017600002D9431A022B04D8814232D9091A02291C
:101770002FD910602DE0344800E03448056028E09F
:10178000334F7878002831D0324F012081007A58C9
:10179000C9198039401CC0B2CA671E28F6D3284632
:1017A000FEF7BAFE7D21C9004843BE21FEF7C8FC02
:1017B000786700208100C9194968401C8E19C0B2A1
:1017C0001E28F7D31E213046FEF7BAFC22498C3082
:1017D0000860641C082C9CD31548016BC907FCD019
:1017E000016A0122D20291430162F8BD2846FEF748
:1017F00093FE7D21C9004843BE21FEF7A1FC0146AE
:101800003878144A8300401CC0B2D15038701E286A
:1018100001D1012078702846FEF77EFE7D21C900A7
:101820004843BE21FEF78CFC0B494630D0E7000050
:1018300000000E4010010020697D0000180100200A
:10184000140100200C0100200801002004010020E8
:1018500010000020880B002088000020044603A010
:1018600002F008F8204602F0AFFDFEE7496E20487E
:10187000617264204661756C742048616E646C65A9
:10188000720A000010B5074C2046FEF7D1FF032175
:10189000002209062046FFF73BF9034800F0DCFC74
:1018A00010BD00000800004008000004F8B5012742
:1018B00000242F4E012803D07462B462F770F8BD83
:1018C000706A401C7062C82845D2F178012901D1A4
:1018D00028494C603228B06A01D1401CB06205280A
:1018E0003ED10A20B0622348F47080388461224DD2
:1018F00029684005814329602048FFF751F928688D
:101900006906084328601E48FFF74AF919488038DD
:1019100087611CA001F0AEFF1F20000300F06EFCE9
:101920001D4DA8420CD11DA001F0A4FF1F202909C4
:10193000000300F0AFFC1D4807700E4844600FE044
:101940001BA001F097FF1F202946000300F0A2FC16
:101950001648047004E0C938C72801D2054847601A
:10196000FF21706A91318842A9D97462F8BD0000E4
:10197000240000208042005020000140E093040039
:1019800050C300004368616E6765205370656564ED
:10199000204D6F64650A0000A0A0A0A02A20536C0F
:1019A0006F77204D6F6465202A0A0000FF00002039
:1019B0002A2046617374204D6F6465202A0A000056
:1019C000F8B5374A0024D4605461546005231B07DE
:1019D000996B344F394099639460996B324E314022
:1019E00099631461996BFF250235A94399631460CB
:1019F000002854D100F07CFC2C49102008602C48B1
:101A000004602C48046005200007816BB310194066
:101A1000816323498C60826B33461A4082630C6178
:101A2000826B2B469A4382630C60E120234980003D
:101A3000214B05260F6803E0884201D9401A03E0D4
:101A4000014600200D467D435D619C611E611A695F
:101A5000D203FCD51C610028EED105252D07A86B0B
:101A6000002813D016A001F005FFA86B0D4908400F
:101A7000A8630B488460A96B0B4A1140A9630461F9
:101A8000AA6BFF2102318A43AA6304600449012042
:101A9000C860486148600B4908710B480470F8BD84
:101AA00040420050FBFBFFFFEFEFFFFF80E100E053
:101AB000F4000020F800002000E000E00400002016
:101AC000265F0A00DC00002036010020F0B53F4C04
:101AD0000023E3606361636005221207956B3C4E4F
:101AE00035409563A360956B3A4E3540956323610D
:101AF000956BFF260236B54395632360012844D1D8
:101B0000012942D03448006801283ED1334800788A
:101B100001283AD13248334B0068984235D22B4DD8
:101B2000403DA868002805D000206B68002B03D03A
:101B3000002302E00120F8E70223C31828680028E8
:101B400001D0002000E004201F1801200425060217
:101B50003B0001F09FFE071A0521113538321A00AB
:101B6000002904D1916B4908490031430BE0916B86
:101B7000102399431B0215E0002907D1916B012323
:101B8000A9439B02194391636061F0BD916B1023DF
:101B900099431B0219430DE0002907D1916B0123E2
:101BA000A9439B02194391636060F0BD916B4908A2
:101BB000490031439163E060F0BD0029D7D0D1E7FF
:101BC0000029E3D0DAE70029F0D0E7E740420050EF
:101BD000FBFBFFFFEFEFFFFF7C0000203601002042
:101BE000BC000020C0C62D0070B5274E27483178B4
:101BF0000068274D274C002913D00022264B0129CD
:101C00002FD002290CD19842E06801D2401CE0603C
:101C10004B21C900884203D332702A70A260E2606F
:101C200070BD1D4960318842FAD31CA0A16801F043
:101C300021FEA068FF21401C9131A0608842EFD3B3
:101C40001AA001F017FE1E48012404601D48C4605C
:101C5000032028701C4801780020FFF7B1FE347083
:101C600070BD0D49C94341185F2902D22978002966
:101C700006D09842F4D22A70A260E260327070BD41
:101C80000620287070BD0000FC0000200401002028
:101C9000000100203C010020360E00004D6F746FE3
:101CA000722054656D703D25642C0A002A4D6F74B6
:101CB0006F725F543E31303027432A0A0000000023
:101CC000F400002000420050ED000020C106C90EC3
:101CD00001208840014908607047000000E100E0F1
:101CE0008307FF22DB0E9A408907090E99400028DE
:101CF0000BDA0007000F0838830808489B00181803
:101D0000C36993430B43C3617047830804489B0036
:101D10001818036893430B430360704700ED00E01D
:101D200000E400E0F8B5294C2A4A20692A4D401CFD
:101D3000206161690926491C6161A169274F491C1D
:101D4000A1612349096891423AD30C280CD929781A
:101D50000020FFF735FE22A001F08CFD21493E70E6
:101D6000042008700C20206119481F49006888422F
:101D700028D360693C280CD929780020FFF720FE81
:101D80001AA001F077FD17493E70042008703C202E
:101D900060610F48AF210068C900884214D3A06970
:101DA000F0280CD929780020FFF70AFE10A001F0D6
:101DB00061FD0C493E7004200870F020A061F8BD60
:101DC0000020D0E70020E3E70020F7E73C010020F7
:101DD00010010020D80E0000ED00002000010020BE
:101DE00049310A00FC000020FC08000049320A00CA
:101DF00049330A0070B51E4D1E482B78FF2200247F
:101E000091321D4E00681D49002B11D0012B0ED1BF
:101E10001B4B984229D24868401C4860904206D922
:101E20000C6018A04C6001F025FD34702C7070BD62
:101E3000134BA233984216D90868401C08609042A0
:101E4000F5D30C6013A04C6001F014FD154801247B
:101E500004601548C46003203070144801780020E5
:101E6000FFF7AEFDE2E70C6070BD4C6070BD000096
:101E7000FD00002008010020000100203C0100209E
:101E8000140D00002A5043425F543C373027432A48
:101E90000A0000002A5043425F543E383027432A4C
:101EA0000A000000F400002000420050ED00002075
:101EB0000648002141618161054A8260054AC2608D
:101EC0000161FF218900016070470000780C00204B
:101ED000AE47613E0AD7A33C0648002141618161BB
:101EE000054A8260054AC2600161FF2189000160E4
:101EF000704700005C0C0020AE47613E0AD7A33C4F
:101F00000548002141618161044A8260044AC2603F
:101F10000161044901607047400C00200AD7A33DCD
:101F2000CDCC4C3D8A020000054800214161816111
:101F3000044A8260044AC26001610449016070473A
:101F4000240C00200AD7A33DCDCC4C3D8A020000D2
:101F5000FFB5044649480E460FC899B0149311AB1B
:101F600007C346490125FF27442210316846FEF782
:101F7000FDF84348159043490220434A30408C42C3
:101F800006D1516903221207824011401C3004E03F
:101F9000D169302282401140001DC140022921D068
:101FA000880011A9085816901B99FEF7C9F81790D8
:101FB0002946FEF7C5F801210906884217D830499D
:101FC000411809020F0E032F00D202273946FEF7EF
:101FD000B7F801210904884209D8012800D080B24D
:101FE00015900AE000F0D6FA28480068DBE768069A
:101FF000050E112D01D21798DAE739461598694375
:1020000041431698FEF79CF816907F1E1598F9B27A
:10201000401E87B2A8006A46155C22687008844694
:10202000C000FF2383409A4381400A4322606168D5
:10203000B000072282409143854029436160A16836
:1020400001226046920782409143A160A068F2009D
:10205000082191400843A0600C214E431C9834197C
:10206000002805D0791C48436421FEF769F8401E1A
:102070002061E76016981DB0F0BD00001445000017
:10208000FFFF00000000044000020050000000209C
:10209000C26F0A43C2677047F8B5354C2046FEF759
:1020A000C7FB344D2846FEF7C3FB334E3046FEF7E0
:1020B000BFFB0321002209072046FEF729FD00226D
:1020C00071072846FEF724FD002230213046FEF736
:1020D0001FFD2A4800F0C0F82848401C00F0BCF85A
:1020E000274D05212846FFF7D3FF264E0121304614
:1020F000FFF7CEFF244C254F00213A46284623689F
:10210000FFF726FF3A46022128462368FFF720FF03
:102110003A46002130462368FFF71AFF042128467B
:1021200000F058F80121284600F054F8012130460B
:1021300000F050F8E86864214843FEF701F80146D2
:10214000642213A001F096FBE86864214843FDF780
:10215000F7FF1449144C086064212160014613A064
:1021600001F088FB16A0216801F084FBF8BD000097
:102170001400C0571500E057160040761400000404
:102180000000044000001440F0000020881300000C
:10219000504D57434D52203D202564202F2025646B
:1021A0000A0000002001002024010020677533325E
:1021B0004D415850574D203D2025640A0000000035
:1021C000677533324D494E50574D203D2025640AE6
:1021D0000000000070B500231A46012635469540E0
:1021E00034460D4202D0D500AC402343521C042A91
:1021F000F4D381681943816070BD000010B50446B6
:1022000000F038F8084908680123184308600022E4
:10221000CA604C600B61BFF36F8F08690028FCD166
:10222000886802490A6010BD00C0005000010050DB
:1022300010B50420FEF7D6FB1020FEF7D1FC0021DC
:102240000720FEF73FFC0348FEF700FC1420FEF7D2
:10225000C7FC10BD80F0FA020521020E09075118D3
:102260008B680122824013438B60886890438860AA
:102270007047000010B5592116230548882202E056
:102280000160036002600468012CF9D110BD0000F8
:102290000001005070B50D460446FEF7F1FDFFF752
:1022A000E9FF094A11680120014311602121D16031
:1022B000546095601061BFF36F8F10690028FCD1E6
:1022C0000249086070BD000000C0005000010050CD
:1022D00006498A691202FCD408600A2804D1886978
:1022E0000002FCD40D20086070470000000005408B
:1022F0000249086188620249086170470000044091
:1023000000001440F8B5244C05462068FEF714F888
:102310002946FDF78EFF214D21492865884204DAC0
:102320002049884201D200202865A069FEF704F800
:102330002169FDF786FF07466069FDF7FDFFE1684B
:10234000FDF77FFF0646A068296D0091FDF779FF34
:102350003146FDF76EFF3946FDF71AFF064628663F
:102360006069A0610098FDF7F9FF60613046FDF7F4
:10237000F5FFFDF7E1FF3F210906FDF709FF3146B3
:10238000FEF71AF8286E02D8FDF7E8FFF8BDFDF752
:10239000FEFF401CF8BD0000780C0020600100200A
:1023A0000000F0410000F0C1F8B5244C054620685B
:1023B000FDF7C2FF2946FDF73CFF214D2149E864A6
:1023C000884204DA2049884201D20020E864A069EA
:1023D000FDF7B2FF2169FDF734FF07466069FDF79D
:1023E000ABFFE168FDF72DFF0646A068E96C0091A0
:1023F000FDF727FF3146FDF71CFF3946FDF7C8FE04
:102400000646E8656069A0610098FDF7A7FF606176
:102410003046FDF7A3FFFDF78FFF3F210906FDF7CB
:10242000B7FE3146FDF7C8FFE86D02D8FDF796FF0D
:10243000F8BDFDF7ACFF401CF8BD00005C0C0020AF
:10244000600100200000F0410000F0C1F8B5244C0C
:1024500005462068FDF770FF2946FDF7EAFE214D8D
:102460002149A865884204DA2049884201D2002027
:10247000A865A069FDF760FF2169FDF7E2FE074648
:102480006069FDF759FFE168FDF7DBFE0646A068CD
:10249000A96D0091FDF7D5FE3146FDF7CAFE39461C
:1024A000FDF776FE0646A8666069A0610098FDF714
:1024B00055FF60613046FDF751FFFDF73DFF3F21BD
:1024C0000906FDF765FE3146FDF776FFA86E02D8D6
:1024D000FDF744FFF8BDFDF75AFF401CF8BD0000B2
:1024E000400C0020600100200000F0410000F0C11D
:1024F000F8B5244C05462068FDF71EFF2946FDF778
:1025000098FE214D21496865884204DA20498842B5
:1025100001D200206865A069FDF70EFF2169FDF773
:1025200090FE07466069FDF707FFE168FDF789FE49
:102530000646A068696D0091FDF783FE3146FDF700
:1025400078FE3946FDF724FE064668666069A0619C
:102550000098FDF703FF60613046FDF7FFFEFDF7D1
:10256000EBFE3F210906FDF713FE3146FDF724FF80
:10257000686E02D8FDF7F2FEF8BDFDF708FF401CBB
:10258000F8BD0000240C0020600100200000F04194
:102590000000F0C1F8B51C4D286944071BA0006875
:1025A0000090296A640F2813014201D0002016E030
:1025B000080301D5164800E016488A030FD40A0420
:1025C000920F6B469B5CCA058904D20DC90E891C0B
:1025D0008008921C59435043FDF7B2FD80000E4E17
:1025E000022CB06002D00D49A0000858A969090763
:1025F000090F491CFDF7A4FD094930604A108018F5
:10260000FDF79EFD7060F8BD00020050010202045B
:1026100000805101001BB700000000207044000042
:1026200040420F007047000070B51B4C2046FEF77B
:10263000FFF81A4D2846FEF7FBF807210022090291
:102640002046FEF765FA0721002209032846FEF717
:102650005FFA144C124820606F20606020686503A8
:10266000284320600820FFF731FB2068A603304391
:1026700020600B48FC302062FF20AF306062094CC4
:1026800020342068284320600920FFF71FFB2068C2
:102690003043206070BD00000200805E0300C05E19
:1026A0000300000800000140F8B5D748FF22006889
:1026B0001932D6490126904202D930460E7000E008
:1026C000002000240C70D2498E60D24DD24B296B71
:1026D000491C29631A68521C1A60EA69521CEA6193
:1026E000642A03D3EC612A6A521C2A621A68FF2703
:1026F000F537BA4203D31C606A69521C6A613229F9
:1027000016D3C649C64A0E701178491C11702C6345
:102710006978884202D0AC61687009E0A969322901
:1027200003D2491CA961322902D3BE49287008602E
:10273000E86A401CE862BC480179012944D0046081
:10274000BA480179012943D00460B94801790129C7
:1027500042D00460B7480179012941D00460B648ED
:102760000179012940D00460B448017901293FD0A2
:102770000460B34800790128B1483DD00460B148F5
:10278000017901293CD00460AF48017901293BD08F
:102790000460AE4FAE4E3879012839D03C60AD4868
:1027A0000179012959D00460AB48AC490068AC4BB1
:1027B000884202D81978012953D0AA4988425AD8A8
:1027C000197800294DD056E00168491C0160B7E72F
:1027D0000168491C0160B8E70168491C0160B9E75C
:1027E0000168491C0160BAE70168491C0160BBE748
:1027F0000168491C0160BCE70168491C0160BEE733
:102800000168491C0160BFE70168491C0160C0E71D
:1028100038681421401C3860484393498842BED32D
:10282000924800780028BAD17E4800680128B6D1C5
:102830008F4801780529B2D08E4909780129AED197
:102840000521017031780020FFF7BAF88A49072086
:1028500008708AA001F00EF8A1E70168491C016028
:10286000A2E77749142209685143864A914202D966
:10287000317800293FD084490C701978834B0129A5
:1028800003D0002924D0C82034E06D4914220968FF
:1028900051437C4A914219D23278022A08D03968D1
:1028A0001422514399420FD932280DD20B2021E036
:1028B000386814225043984204D97548814201D99E
:1028C0001F2017E02A2015E0262013E0292011E020
:1028D0005B491422096851436A4A914226D23278F0
:1028E000022A15D039681422514399421CD9322842
:1028F0001AD20C202864296CE86A884200D9EC625C
:10290000644965480A680068824211D8104610E0A0
:10291000386814225043984204D95D48814201D955
:102920002020E7E76720E5E76620E3E76520E1E7A9
:102930000860FFF7DDFC5948C06805273F070128FC
:102940000DD1B86B40050AD53178012907D035483B
:102950000068012803D147480078012805D02C726F
:102960004E48406801280ED01BE0287A401CC0B2B7
:1029700028720228F4D30020FFF722F8317848A00B
:1029800000F078FFECE7B86BC0050AD53178012973
:1029900007D024480068012803D136480078012870
:1029A00005D0EC713D48406901280ED01BE0E87964
:1029B000401CC0B2E8710228F4D30020FFF700F8F1
:1029C000317839A000F056FFECE7B86BC0040AD5A7
:1029D0003178012907D013480068012803D1254820
:1029E0000078012801D0AC71F8BDA879401CC0B2B4
:1029F000A8710228F8D30020FEF7E2FF31782CA05E
:102A000000F038FFF8BD00000C0100207900002024
:102A10000000014024000020740000203901002043
:102A20003A0100207C000020E4000020C4000020C7
:102A3000CC000020AC000020B4000020A400002046
:102A4000BC000020940000209C000020D400002046
:102A5000ED000020DC000020F4000020ED03000069
:102A60007A0000208F020000C027090034010020F6
:102A7000FC000020360100200001002053746C0A85
:102A800000000000E09304002C01002030750000DD
:102A9000A0860100F00000202001002040420050EC
:102AA0007E25640A000000002125640A0000000061
:102AB0004025640A00000000F0B5FF488BB00121FA
:102AC0008160FE4802682C239A430A430260FC4856
:102AD000417A491C41728178491C8170FEF70AFED7
:102AE000F84FF94D38680024002829D1F748FDF740
:102AF0004BFD3968002923D10126F5483E6004606A
:102B00000471F448F54B04600471F348006898427E
:102B100002D26E61AE6110E07D21C900884205D20B
:102B20000A461946EEA000F0A5FE06E0F1A000F06E
:102B3000A1FEE7480671E7480671E448FDF724FD69
:102B4000DF4E707AC82830D17472386800283BD0C4
:102B5000E048142100684843EA49FDF7F1FAEA49E0
:102B6000F36B0A68E94903AF09780690E8480793D0
:102B7000099208910378E7480268E7480168D64857
:102B8000006802900EC7E5480168E54800680090BB
:102B9000E44801910368E4480268E4480178E4A04D
:102BA00000F068FEF0A000F065FEC648006800284E
:102BB0007ED0FEF72BF8DC480768EC48002F0AD0DF
:102BC0000079012817D034E0E9A000F053FEBF4897
:102BD0000A210170E9E7017901292AD1006814214D
:102BE0004843E549884206D9E4480068002802D1F4
:102BF000E34901200870DD48142100684843E14999
:102C0000884216D905200007816BDF4A1140816395
:102C1000AD4940318C60826BDC4B1A4082630C61A1
:102C2000826BFF2302339A4382630C60CC604C6159
:102C30004C60D2480068012802D000287ED075E39D
:102C400001207073A348A44A0460A148A34904600A
:102C50001068884201D2002F13D074637D23DB00FB
:102C6000984207D2CA49142209685143C82901D29F
:102C70000121B1727D21C90088422CD2002F04D0DD
:102C800029E0716B491C7163E8E7A84800780128C6
:102C900021D1307B00281ED1BE48007800281AD1EF
:102CA000BDA000F0E7FD01203073AC61EC6000E0F6
:102CB000A4E3814F3868790688433860B848FDF747
:102CC0006FFF3868790608433860B548FDF768FF3C
:102CD0000120A861E860706B3C2802D3F17A0029DA
:102CE0000BD092490978012979D07B4F7B493A680A
:102CF0008A4201D9002822D0EAE1844804700120E8
:102D0000F072A8A000F0B6FD05200007816BC90590
:102D1000CB0F816B806B4905CA0FC004C10FA5A002
:102D200000F0A8FD684840304368C2684169A1A02E
:102D300000F0A0FD654802210170C9E1E7E190487B
:102D400000780128D8D1784800680028D4D16E488E
:102D5000FF2100680F318842CED998480178C90711
:102D6000CAD16B490A78964909780A439549097886
:102D70000A43C1D17D490C710C6001210170634887
:102D80000470FF200630B064401EF0648148047077
:102D9000634804606148046059A000F06BFD8AA09C
:102DA00000F068FD89480078002804D0012808D088
:102DB000022808D00AE05D48017885A000F05AFD9D
:102DC00004E085A000E085A000F054FDA86800287C
:102DD00006D000206968002904D0002103E031E119
:102DE0000120F7E7022140182968002901D00021BD
:102DF00000E0042141187DA000F03CFD7DA0396871
:102E000000F038FD3EA000F035FD304804706F48FA
:102E1000F4630078012807D17D203968C000814221
:102E200002D92948803044602348203800680121B5
:102E3000890788432049203908601F4800688903B2
:102E400088431D49086005200007816B4E4A1140E8
:102E500081631D4F4037BC60816B4C4A11408163D8
:102E60003C61816BFF220232914381633C6001200F
:102E7000F860786178606148FDF792FE0E4820386E
:102E80000068390608430C49203908600A48006880
:102E90008903084308490860FC607C617C605748EE
:102EA000FDF77EFEF869012804D055480470012022
:102EB000F862A7E0BFE000002000014000400040B1
:102EC000240000209000002000420050000100205B
:102ED000A4000020AC00002088000020D6060000DE
:102EE000090923232025643C2056203C25640A0A36
:102EF0000000000009092323202564203C20560AF5
:102F00000A00000040420F000C01002037010020A1
:102F1000FD00002004010020080100201401002011
:102F200010010020F0000020F4000020ED0000203F
:102F300025642C2025642C2025642C205B25642FFF
:102F400025642C2025642C205D2C207B25642F25D6
:102F5000642C2025647D2C2025642C2025642C20C5
:102F60005B25642C202564000A0A0000DC00002098
:102F700049445F4E470A0000671E06007C0000209F
:102F800036010020673C0100FBFBFFFFEFEFFFFF76
:102F9000BC000020030100203132330A0000000091
:102FA00050C300006C6F7720626174746572790A97
:102FB000000000002564256425640A003801002013
:102FC000FC000020FE000020446E3D00FF000020B9
:102FD000463A25640A0000002A530A002A2A20499A
:102FE00044204572726F72202A2A0A0048533D25F8
:102FF000640A0000563D25640A000000204E0000CF
:103000007A000020FE4F3978FEF760FDFD4901206F
:103010000871FD4839780170FC48FF49046004716B
:10302000FB4804600471FB480460047101200871CE
:103030001020FA494BE0FAA000F01CFCFB490120EB
:10304000087034E7FA4F3878012803D1F949097834
:10305000002906D0F84909780143F6480078014371
:1030600036D1F6A000F006FCF6490120C862F1490D
:103070003C700870F4480460F44800680127BF07FA
:10308000F249B8430860F14820300068EF49B8437E
:1030900020310860EC60AC61ED48FDF781FD012056
:1030A000E860A861EB48FDF77BFDAC61EA48FDF7FD
:1030B00077FD0120A86100F0A5FBE44801683943D1
:1030C0000160E24820300068E04938432031086060
:1030D000D848007801287DD1B07A0128FBD1DF489B
:1030E00000780028F7D1C6480078012873D0DC4862
:1030F000007800280AD1DB4800780028FAD1DA48A5
:1031000000780028F6D1D9490120087022E1707BAF
:103110000128E0D1C6480078C007DCD1D4A000F077
:10312000A9FB6E20C74F7064FC62D3480470C1488D
:10313000007801281BD1B07A012818D1C74800783F
:10314000002814D1AE480078012810D0C448007877
:1031500000280CD1C3480078002808D1C248007864
:10316000002804D1C1480C210170FDF70DFAFC6064
:103170007C607C61C14864210460C1480160C14930
:1031800001200871C0490C70C049F4630C710C60D7
:10319000A1490C710C60BE490C707463B472A449EF
:1031A000F4720870A74940314860AD4FAD4A397894
:1031B00012781143AC4A1278114300D1E8609E495D
:1031C00001200870B34804600471B34800780028F7
:1031D00007D001E0AAE0ADE0B0480168B048814204
:1031E0000BD28A498A4A0C60012014600871107160
:1031F000904804700020FEF759FBAA480078032885
:1032000068D03878002865D196480078002861D1C8
:103210009548007800285DD17F48A349006888421E
:1032200058D277480078012804D0A04800780028B8
:103230002AD04FE0307C002802D0012813D049E08A
:103240009B4F1421386848437D21C900FCF778FF63
:10325000014698A000F00EFB01203C603871307CE4
:10326000401C307436E09248142100684843784985
:1032700088422FD27D21C900FCF762FF01468FA052
:1032800000F0F8FA347425E0EC60AC616E4804603C
:103290006E48203000680127BF076C49B8432031D1
:1032A00008608848FDF77CFC8648FDF779FC864875
:1032B000FDF776FC654820300068644938432031CA
:1032C000086000F09FFA0120E860A8617F48046070
:1032D0007F4804605048046004716F4800780128FA
:1032E00014D168616D490A687D21C9008A4202D9FA
:1032F000544940314C604F49454A0C7043490C6079
:103300001460087110710020FEF7D0FA554800785B
:10331000052803D0042801D0032803D13D4801210A
:10332000046001715F48047060480470344800789C
:1033300001280FD15E4F14213868484365498842FF
:1033400008D9307C012805D163A000F093FA3C60D5
:103350003C7134742C482A4F00783978884203D065
:10336000B26B521CB26300E0B463884214D0574879
:103370000068002810D0B06B02280DD35AA000F0CE
:1033800079FA524804605248046039780020FEF708
:1033900017FB3E48047104603448FDF7F5F8FEF76A
:1033A00029FDFEF721FCFEF7BDFC1648514E0168D1
:1033B000B14203D10121A9610471046014484E494E
:1033C0000068884213D94D48006800280FD04CA0EF
:1033D00000F050FA2C616C61EC601C4A20321068DD
:1033E0005106884310603046FDF7DAFBEC6109486E
:1033F00001681748814202D340489DE0C4E0A0E044
:10340000ED000020C4000020EC000020A4000020FB
:10341000AC000020B4000020BC00002000E100E06F
:1034200053706565642048490A0000007A00002056
:103430003701002038010020020100204272616B38
:10344000650A00004042005000400040000001407A
:1034500020A10700A0860100400D03000301002009
:10346000FD000020FC000020FE00002000010020E4
:103470000A55700A000000002C01002030010020D5
:10348000F0000020DC00002036010020D4000020E5
:103490000101002094000020FF000020880000208F
:1034A000D606000034010020C0C62D001C010020FB
:1034B000E400002031313D25640A000032323D2510
:1034C000640A0000E093040008520000F4000020A9
:1034D000F800002007A50700526573657420446F4B
:1034E00075626C650A0000002A4572726F722A0AC2
:1034F0000000000050C30000804F12009000002028
:1035000020202020202020202020202020202020BB
:1035100020202020202020202020202020202020AB
:103520002A2A203234732020506F776572206F660C
:1035300066202A2A0A0000000068002801D01348EB
:103540000470134E1349306888421DD91248006830
:10355000002819D011A000F08DF93878012801D089
:103560001B48C462012028616861194940314860E4
:10357000E860A86117490C6017490C6017490C7086
:1035800017490870346034710BB0F0BDFC000020A6
:10359000A4000020F04902009000002020202020FC
:1035A000202020202020202020202020202A2A2007
:1035B0003373204C4544204F464620616E642042C0
:1035C000757A7A6572204F4646202A2A0A00000042
:1035D00040420050F4000020F800002000010020CC
:1035E0000301002010B5094C2046FDF721F9012107
:1035F000002209062046FDF78BFA0548FEF72CFE4F
:10360000E1210903034800F007F810BD103D805781
:103610001000000400000540F0B504461C480D46AB
:103620000FC885B06E460FC61A48416980698A0185
:103630000321960F0005070F00202063E160A068BA
:1036400015490840A060012E02D1FDF7D3F9019081
:10365000002D1BD0B10068464058791CFCF770FD66
:103660000646690840182946FCF76AFD0B49801E8A
:10367000884207D9E90070182946FCF761FD000966
:10368000801E02E0032109070843606205B0F0BD17
:1036900090440000000200500FFFF0FFFFFF000009
:1036A00070B50E4C0146207B0D4D8200A9500026BE
:1036B0000321401CFCF744FD21730024A00029587D
:1036C0003046FCF765FD641C0646032CF6DB054915
:1036D000FCF7F4FD01498031886070BD6001002075
:1036E000000C00200000404070B50E4C0146A07B4D
:1036F0000D4D8200A95000260321401CFCF720FD3F
:10370000A1730024A00029583046FCF741FD641C39
:103710000646032CF6DB0549FCF7D0FD0149803154
:10372000086170BD60010020180C002000004040BE
:103730001C48012101601C4A642010601B4A0020C3
:1037400010701B4A10701B4A11701B4A10701B4AE4
:1037500010701B4A10601B4A10601B4A10601B4A05
:10376000106010711A4A106010711A4A10701A4ACB
:1037700011701A4A10701A4A10701A4A10701A4AB8
:1037800010701A4A10701A4A11701A4AFB211160FF
:10379000194AA3211160FF21184A483111601849C4
:1037A0000870704790000020F000002034010020D5
:1037B00002010020ED000020030100200001002094
:1037C000AC000020A4000020B4000020DC00002099
:1037D000E400002001010020360100203701002014
:1037E00038010020FC000020FD000020FE00002029
:1037F00035010020800000208400002028010020E6
:103800002C01002010B5592116231148882202E00E
:103810000160036002600468012CF9D12B24640666
:103820002046FDF705F8002203212046FDF770F938
:10383000012200230321900200F00EF805480168E0
:103840004022114301600120FEF740FA10BD000044
:10385000000100500040004010B5054C616051006F
:1038600001431801014380200143216010BD000085
:10387000004000400FB410B503A9044B044A02985D
:1038800000F024F810BC08BC04B01847053F000045
:103890000C00002030B47446641E2578641CAB42D2
:1038A00000D21D46635D5B00E31830BC184702E0A0
:1038B00008C8121F08C1002AFAD1704770470020BB
:1038C00001E001C1121F002AFBD17047FFB58FB084
:1038D0000F460446002606E025280AD0129A1199C0
:1038E0009047641C761C20780028F5D1304613B030
:1038F000F0BD002501219F4A009500E00543641CAE
:1039000023780846203B98401042F7D120782E2893
:1039100015D1042005436078641C2A280AD101CF00
:10392000641C00900BE000990A2251433039401882
:10393000641C00902078014630390929F3D9207899
:103940006C280ED004DC4C2813D06A2812D104E075
:1039500074280ED07A280DD10BE0012040050543D4
:1039600007E00121090562780D43824201D16D18FB
:10397000641C641C2078692849D008DC0028B5D074
:1039800058286CD063280FD0642808D13FE07028F5
:103990006AD0732811D075285FD078285FD0129A2A
:1039A00011999047761CE3E0387869460872002048
:1039B000487202A80190012003E0386801900020BD
:1039C000C0433F1D69070CD5002500E06D1C009920
:1039D0008D420FDA8542F9DB0199495D0029F5D165
:1039E00008E0002500E06D1C8542FCDB0199495D83
:1039F0000029F8D1761907E0019801990078491C4F
:103A00000191129A119990476D1EF5D2B0E00A20EB
:103A1000029000216802400F039102280CD001CFD0
:103A2000C117844600290DDA60460A46404200214B
:103A3000914184462D2008E0FF1DFF08FF0003CFC1
:103A40008446EFE7280504D52B206A461074012030
:103A50003DE0E8073BD02020F7E70A2000E01020F7
:103A600000210391029007E0102002900021042021
:103A700005430820039100906802400F022811D0EE
:103A800001CF0021844600200D90280720D5207802
:103A9000864670280CD0029A1020039B42401A439D
:103AA0000CD015E0FF1DFF08FF0003CF8446EAE7B6
:103AB00040206A46107401200D900CE060460843D7
:103AC00006D030206A4610747046507402200D9063
:103AD0002078582804D028A001900DA80E900DE061
:103AE0002AA0F9E76046039B029AFCF76FFC019B52
:103AF00084469B5C0E9A521E0E92137060460843D9
:103B0000F0D10E9805A9081A20300190680701D459
:103B10000120009000990198814201DD081A00E01F
:103B200000200025009006E004A8129A405D11993B
:103B300090476D1C761C0D988542F5DB04E0129AC7
:103B4000302011999047761C0099481E009000295A
:103B5000F5DC08E00E980E990078491C0E91129A37
:103B600011999047761C0199481E01900029F1DCBB
:103B7000641CB8E609280100303132333435363759
:103B800038396162636465660000000030313233A9
:103B90003435363738394142434445460000000049
:103BA00030B5404D0024AC632B468033AC671C60BD
:103BB0001C642C64EC676C675C643B486C64006854
:103BC000A8643A492A2008606C85AC85EC853948A0
:103BD0002C86374A0260FF20364980003831086061
:103BE0001C390A60383108602C846C84EC842C8584
:103BF000EC702C71EC712C702F48AC7004602F4865
:103C000004602F4804602F4804602F4804602C7221
:103C10006C72AC722D485C6004606C70EC76AC71B8
:103C2000AC83EC83EC72FEF743F9FEF755F9FEF72F
:103C300067F9FEF779F91F49002024398200401CFA
:103C40008C500328FADB1B49002018398200401CE5
:103C50008C500328FADB6C74AC702C71AC749C60D3
:103C6000DC605C611A489C6104606C716C86194868
:103C7000DC610470EC732C74FF2028756C75AC75D6
:103C8000AC841C625C62DC621C635C639C63EC74ED
:103C90009C62AC86DC63EC752C7600F033FB6C76B2
:103CA000AC7630BD60010020880000206400002058
:103CB0008A020000240C002074000020380000203C
:103CC000400000204400002060000020F0000020A0
:103CD000F400002020000020F3B507461B4D1C20F7
:103CE00081B0285EFCF728FBFFF7DAFC184C20684F
:103CF000FCF72DFBFFF7F8FC16480078012818D1D7
:103D00002A468032D069C72813D8134916460B6853
:103D10008100483673508919104B032636021B6800
:103D20008E1933620326760289192368401C0B64BE
:103D3000D0616878012805D02879012802D128703F
:103D400007482060EF8402982885FEBD60010020AE
:103D5000F00000207A000020F40000201001002074
:103D6000A2080000F3B50746184C1C2081B0205E65
:103D7000FCF7E2FAFFF794FC154D2868FCF7E7FA28
:103D8000FFF7B2FC22468032D069C72813D8114908
:103D900016460B6881004836735089190E4B03266E
:103DA00036021B688E1933622B6803256D02491990
:103DB000401C0B64D0616078012803D02079012871
:103DC00000D12070E78402982085FEBD60010020AC
:103DD000F0000020F400002010010020F0B584461F
:103DE0001E491F48CA69066808468038142A05D942
:103DF000038C9B1B1E2B01DD0123437119491A4BB8
:103E00000C681968C72A0CD8144F950048377E51A2
:103E10000326ED193602AE19346203267602AD1977
:103E200029640E4D521CEA614278002A0FD1427972
:103E3000012A04D0022A04D0042A06D007E00B4944
:103E400004E0642903D3143900E00949196061468C
:103E50000184448419888184F0BD0000E0010020C1
:103E6000F400002010010020F000002044070000B2
:103E7000A2080000F0B584461D491E48CA690668BC
:103E8000084680381E2A05D9038C9B1B1E2B01DD9A
:103E9000012343711849194B0C681968C72A0CD8BB
:103EA000134F950048377E510326ED193602AE199F
:103EB000346203267602AD1929640D4D521CEA6165
:103EC0004278002A0ED142790D4D012A09D0022AEA
:103ED00002D0042A05D005E0642903D314391960FF
:103EE00000E01D6061460184448419888184F0BD2E
:103EF000E0010020F400002010010020F00000206C
:103F0000A208000000B50346FEF7E2F9184600BD1E
:103F1000654C59221620882102E022602060216031
:103F20002368012BF9D1FEF783F900252560FFF7FF
:103F3000FFFBFDF77DFAFFF755FBFDF7F5FFFDF7FA
:103F4000DFFFFDF7C9FFFDF7B3FFFEF7A5F8FDF7AB
:103F500099FCFCF7EBFA5548016855A0FFF78AFC7D
:103F600057A0FFF787FC5BA0FFF784FC5DA0FFF77D
:103F700081FC5FA0FFF77EFC5FA0FFF77BFC61A0E8
:103F8000FFF778FC0222012162A0FFF773FC664C68
:103F9000E06864214843FCF7D3F864214843E168B2
:103FA000FCF7CEF8014661A0FFF764FC65A168A0AC
:103FB000FFF760FC42A0FFF75DFC694C69A0E26876
:103FC000A168FFF757FCFDF795FB6A4A9068002847
:103FD00005D000205168002903D0002102E0012013
:103FE000F8E7022141181068002801D0002000E005
:103FF0000420091860A0FFF73DFC0126634840211A
:1040000001608021016005200007816B604A11403A
:104010008163584940318D60CD60826B5D4B1A40A1
:1040200082630D614D61826BFF2302339A43826389
:104030000D604D60FEF7F8FAFCF7E8FD0021012065
:10404000FDF74EFE01210220FDF74AFE012104206A
:10405000FDF746FE00210820FDF742FE032109205E
:10406000FDF73EFE4CA02169FFF704FCFFF7CAFBF9
:10407000667026702078002803D06078002800D170
:10408000257020780128F5D06068012802D0FFF75C
:1040900087FDEFE7A078012802D000F0DDF8E9E71E
:1040A00000F082F8E6E70000000100500000002068
:1040B0000A0A4350552020256420487A0A0000004F
:1040C0002A2A2A2A2A2A2A2A2A2A2A2A2A2A2A2A50
:1040D0002A0A00002A2A205054412D5836305F58B1
:1040E00033352000506F6C657320325F5F00000035
:1040F0005657550A000000002A2A2049443A5965BB
:10410000732C00002042757A7A65723A5965730AF9
:10411000000000002A2A20462F57203D2056256403
:104120002E30256441200A00000004402A2A204D38
:1041300061782044757479203D2025642525200A66
:1041400000000000323032353035313600000000DA
:104150002A2A2053564E203D2025732020200A0075
:1041600078000020312F34203D2025642C20256448
:104170000A0000000042005048616C6C2053656EDC
:10418000736F723D202564200A00000000E100E00A
:10419000FBFBFFFFEFEFFFFF426174746572792054
:1041A0003D25640A00000000F8B52449087803287A
:1041B0001DD3234D0020087029682248491C29601E
:1041C00007782148214A224E2C463368006812683D
:1041D000803C002F0CD001291DD0032907D1217864
:1041E000002924D0FCF76EFEA06B401CA063F8BD34
:1041F000012906D00329FAD191B280B2FFF7EEFD72
:1042000019E02367FCF7A3F8FEF7CEF808E0316861
:1042100008183060F8BD2367FCF799F8FEF772F8CC
:10422000E066216F42180B498A42F3D2EFE791B260
:1042300080B2FFF751FD00202860D5E73A01002049
:10424000E0010020ED000020F4000020100100201B
:10425000F0000020A3080000F8B5234801780329E6
:104260001CD30024214D0470696F2148491C6967E3
:1042700007782048204A214E006833681268002FD2
:104280000DD001291ED0032908D12978002925D075
:10429000FCF718FEA86B401CA8636C67F8BD0129E9
:1042A00006D00329FAD191B280B2FFF7E3FDF4E71B
:1042B0002B67FCF74CF8FEF71BF908E0316808188B
:1042C0003060F8BD2B67FCF742F8FEF7BFF8E866F0
:1042D000296F42180A498A42F3D2EFE791B280B2BD
:1042E000FFF740FD6C67D5E73A0100206001002030
:1042F000ED000020F400002010010020F00000205C
:10430000A3080000F0B52348274F01783A46002063
:10431000214B224C224D234E803A01291FD0D16FD0
:1043200000291BD110701860206028601F49306080
:10433000886148611E4C8C601E4DCD6050650B46F7
:104340001C335066986158619C60DD6090651A4B23
:1043500090660B607864194990700870F0BD916F99
:104360000029FBD110701860206010492860383196
:10437000306088614861124C8C60124BCB60D06415
:104380001C31D065886148618C60CB601065106617
:104390003864E0E77A000020740000203800002034
:1043A0004000002044000020E0010020240C0020F8
:1043B0000AD7A33DCDCC4C3D8A0200003901002034
:1043C000AE47613E0AD7A33C10B50446016810A071
:1043D000FFF750FA11A06168FFF74CFA12A0A1682C
:1043E000FFF748FA13A0E168FFF744FA14A0216927
:1043F000FFF740FA15A06169FFF73CFA16A0A16922
:10440000FFF738FA17A0E169FFF734FA10BD000092
:10441000723020203D20307825780A00723120202B
:104420003D20307825780A00723220203D203078F7
:1044300025780A00723320203D20307825780A0044
:10444000723132203D20307825780A006C722020AD
:104450003D20307825780A00706320203D20307898
:1044600025780A00707372203D20307825780A0084
:10447000001BB7000000000080F0FA0210270000C7
:10448000000000000000000000000000008051015A
:10449000001BB70000000000000000000080510178
:1044A000001BB70000000000000000000080510168
:1044B000001BB70000000000000000000080510158
:1044C000001BB70010270000000000000080510111
:1044D00000000000040000000000000000000000D8
:1044E00001000000000000000000000000000000CB
:1044F00002000000000000000000000000000000BA
:1045000000000000000000000000000000000000AB
:1045100003000000001BB70010270000000000008F
:1045200000805101000000000400000000000000B5
:10453000000000000100000000000000000000007A
:104540000000000002000000000000000000000069
:10455000000000000000000000000000000000005B
:10456000000000000300000088450000000000205B
:10457000880B0000AE38000010510000880B0020AE
:1045800010030000BE38000080F0FA023200000084
:1045900080F0FA02000000000000000000000000AF
:1045A000000000000000000000000000000000010A
:1045B00000000000000000000000000000000000FB
:1045C00000000000000000000000000000000000EB
:1045D00000000000000000000000000000000000DB
:1045E00000000000000000000000000000000000CB
:1045F00000000000000000000000000000000000BB
:1046000000010000000000000000000000000000A9
:10461000000000000000000000000000000000009A
:10462000000000000000000000000000000000008A
:10463000000000000000000000000000000000007A
:10464000000000000000000000000000000000006A
:10465000000000000000000000000000000000005A
:10466000000000000000000000000000000000004A
:10467000000000000000000000000000000000003A
:10468000000000000000000000000000000000002A
:10469000000000000000000000000000000000001A
:1046A000000000000000000000000000000000000A
:1046B00000000000000000000000000000000000FA
:1046C00000000000000000000000000000000000EA
:1046D00000000000000000000000000000000000DA
:1046E00000000000000000000000000000000000CA
:1046F000000000000000000000000000FF000000BB
:1047000000000000000000000000000000000000A9
:104710000000000000000000000000000000000099
:104720000000000000000000000000000000000089
:104730000000000000000000000000000000000079
:104740000000000000000000000000000000000069
:104750000000000000000000000000000000000059
:104760000000000000000000000000000000000049
:104770000000000000000000000000000000000039
:104780000000000000000000000000000000000029
:104790000000000000000000000000000000000019
:1047A0000000000000000000000000000000000009
:1047B00001000000000000000000000000000000F8
:1047C00000000000000000000000000000000000E9
:1047D00000000000000000000000000000000000D9
:1047E00000000000000000000000000000000000C9
:1047F00000000000000000000000000000000000B9
:04000005000000F502
:00000001FF
